:100000000C94DF010C94070D0C9426020C9426022C
:100010000C9426020C9426020C9426020C942602C0
:100020000C9426020C9426020C943F210C9411226D
:100030000C94821A0C9426020C9426020C9426022C
:100040000C9426020C9426020C9426020C94260290
:100050000C9426020C94EA1A0C9426020C942602A4
:100060000C9426020C9426020C9426020C94260270
:100070000C9426020C9426020C9426020C94260260
:100080000C9426020C9426020C9426020C94260250
:100090000C9426020C9426020C9426020C94260240
:1000A0000C9426020C9426020C94260211041304CC
:1000B0001E041504170419041B041D042004220443
:1000C00024042F04260428042A042C042E043104BA
:1000D000AE10AE10E010E0102011911291129112AA
:1000E00040119112ED11ED115D12661291128A12FA
:1000F000FA11FA11FA11FA11FA11FA11FA11FA11A8
:10010000FA11FA11FA11FA11FA11FA11FA11FA1197
:10011000091217121E1225122F121C131C132E1354
:100120002E1325132E132E132E131C131C132A13F8
:100130002E132E132A137E22A5229723A52297235E
:10014000F122142397236A2379231E001F00200025
:1001500021002200230014001A00080015001700D7
:100160001C0004001600070009000A000B00E10053
:100170001D001B0006001900050000000000E20041
:1001800029002C00E0002E002D002700260025006D
:10019000240030002F00130012000C001800310062
:1001A000340033000F000E000D00E500380037006A
:1001B000360010001100000000004C00E7002C0089
:1001C0002A000000000000010101010101010101FC
:1001D00002020202020202020203030303030303F8
:1001E00003040404040404050505050506060606C3
:1001F0000607070707080808080909090A0A0A0A7A
:100200000B0B0B0C0C0C0D0D0D0E0E0F0F0F101019
:10021000111111121213131414151516161717189D
:100220001819191A1A1B1C1C1D1D1E1F1F20202106
:1002300022222324252526272728292A2B2B2C2D4B
:100240002E2F2F30313233343536363738393A3B6A
:100250003C3D3E3F4041424344464748494A4B4C5F
:100260004D4F50515253555657585A5B5C5E5F6024
:100270006263646667696A6C6D6E707173747678B8
:10028000797B7C7E8081838486888A8B8D8F919216
:100290009496989A9B9D9FA1A3A5A7A9ABADAFB13A
:1002A000B3B5B7B9BBBDBFC1C4C6C8CACCCFD1D323
:1002B000D6D8DADCDFE1E4E6E8EBEDF0F2F5F7FAC8
:1002C000FCFF0403300000001C03490072006900B9
:1002D000730020004B006500790062006F00610030
:1002E0007200640000000E034B00650065006200B0
:1002F00069006F0000000403090409023B000201C9
:1003000000A0FA0904000001030101000921110104
:1003100000012240000705810308000A09040100CA
:100320000103000000092111010001223600070528
:10033000820320000A120110010000000810CB56B1
:100340001200020102030105010980A101850316C3
:1003500001002603001A81002A830075109501818F
:1003600000C0050C0901A1018504160100269C02AC
:100370001A01002A9C02751095018100C00501092F
:1003800006A101050719E029E71500250195087563
:10039000018102950175088101050819012905955A
:1003A0000575019102950175039101050719002951
:1003B000FF150026FF00950675088100C000112476
:1003C0001FBECFEFDAE0DEBFCDBF04B603FE27C00D
:1003D0008091210290912202A0912302B0912402E7
:1003E0008730904BA740B04BD1F41092210210926D
:1003F0002202109223021092240214BE84B7877F37
:1004000084BF0FB6F894A8958091600088618093AE
:100410006000109260000FBEE0E0F8E3099511E083
:10042000A0E0B1E0EEE1F9E402C005900D92A63241
:10043000B107D9F722E0A6E2B1E001C01D92A132D6
:10044000B207E1F70E94631E0C948D240C94000007
:1004500081E0089581E008950C942A020C94A80785
:10046000CF92DF92EF92FF92863030F4811105C077
:10047000909180009F7704C085E090918000906803
:1004800090938000282F30E0AFEFBFEF0E942B2425
:1004900025E030E040E050E00E9403242C3784E166
:1004A00038074105510530F4C90169E070E00E9448
:1004B000DB2329C0DA01C9018A50974DAF4FBF4FE6
:1004C0006627782F892F9A2F25EF38E241E050E0F8
:1004D0000E94032469017A01CA01B9010E94CB2359
:1004E0009B01AC01C701B6010E94CB23BB27A92FFA
:1004F000982F872F009721E0A207B10511F0BC01CA
:1005000002C06FEF7FEF7093890060938800FF90C7
:10051000EF90DF90CF900895259A2D9882E88093F0
:10052000800089E1809381008FEF9FEF9093870097
:10053000809386000C94211C0E947319811102C0C3
:100540000E94EA190E948C020C94A50708950C944D
:10055000A6020C94A70208950E940C130E94AB02FD
:100560002FEF84E39CE0215080409040E1F700C0F1
:10057000000087E797E790930108809300080C94A8
:10058000101BFF920F931F93CF93DF938C01FC01FD
:10059000C081D18180915E01811113C08281882345
:1005A00049F0CE010E944318F82E682FCE010E9418
:1005B000E61704C0CE010E941618F82EBE018F2D3A
:1005C00004C0CE010E944318BE010E94E504EC0164
:1005D000B8010E942C02882309F4ECC1C93CFCE557
:1005E000DF0709F4C5C0C0F5C23C9CE5D90709F492
:1005F00086C0C0F4C531FCE5DF0778F4C2308CE575
:10060000D80708F0ECC0C1159CE5D90709F45CC017
:10061000C130DC4509F460C0C0C1C631DC4509F415
:1006200095C1BBC1C53C8CE5D80709F488C050F41E
:10063000C33CECE5DE0709F469C0C43CDC4509F4C1
:100640006FC0ABC1F8018281C73CFCE5DF0709F44C
:1006500085C008F47EC087C0C63DECE5DE07B0F477
:10066000CE3CFCE5DF0708F0A5C1CB3C8CE5D80704
:1006700009F48CC008F483C0CC3CECE5DE0709F437
:100680008DC0CD3CDC4509F491C087C1C83D8CE5E7
:10069000D80709F440C150F4C63DECE5DE0709F483
:1006A000F0C0C73DDC4509F40FC177C1CC3D8CE5F6
:1006B000D80709F48BC0CD3D9CE5D907C1F0CB3DEF
:1006C000DC4509F06AC17BC0F8018281882309F406
:1006D00071C10E94AC026EC1F8018281882309F4C5
:1006E00069C18091D40181608093D40163C1F80114
:1006F0008281882309F45EC10E94EA195BC1F80176
:100700008281811157C10E94E40B1FC0F8018281D0
:10071000882309F44FC10E94C318827251F00CC0A3
:10072000F8018281882309F445C10E94C3188272AE
:1007300019F00E94C70B09C00E94D50B06C0F80132
:100740008281811137C10E94F10A81E080934101C9
:1007500031C181112FC10E94150BF7CF81112AC120
:100760000E94350BF2CF811125C10E94550BEDCFB0
:10077000F801828181111EC10E94750BE6CFF8013C
:100780008281811117C10E94950BDFCFF801828110
:10079000882309F40FC10E941D0A0CC1F80182814F
:1007A000882309F407C10E94320A04C1F80182813A
:1007B000882309F4FFC081E00E94D80BC6CFF8015E
:1007C0008281882309F4F6C080E006C0F8018281A6
:1007D000882309F4EFC082E00E94021FEBC0F801F9
:1007E0008281882309F4DEC00E947319811102C03E
:1007F0000E94EA190E94861990E090931202809359
:100800001102FE01E350FC45E231F10530F4EA5AF1
:10081000FF4F809111020C94252480911102816078
:1008200027C0826025C0846023C0806121C08062AF
:100830001FC080641DC080681BC08460886018C0B1
:100840008E7F16C08D7F14C08B7F12C08F7E10C02C
:100850008F7D0EC08F7B0CC08F770AC08B7F877F08
:1008600007C087FB222720F991E0922790FB87F9A8
:1008700080931102809111020E948A190E940C1328
:1008800099C0F8018281882351F010922B010E94B7
:10089000B41A909328018093270182E022C08091AE
:1008A0002B0181110FC080912701909128010E9496
:1008B000C01A883C910530F486E20E94DC0E86E284
:1008C0000E940B1082E024C0F8018281882361F02D
:1008D00010922C010E94B41A90932A01809329014E
:1008E00080E20E946A1066C080912C0181110FC0C5
:1008F0008091290190912A010E94C01A883C91059B
:1009000030F487E20E94DC0E87E20E940B1080E246
:100910000E9471104FC0F80182818111D9CF80915E
:100920002C018111F4CF8091290190912A010E941C
:10093000C01A883C910558F780E20E94711088E245
:100940000E94DC0E88E20E940B1034C00E94C31883
:10095000282FF80182814091090150910A018823D2
:1009600079F02A7A91E009F490E0909326019111B0
:1009700002C069E201C065E3CA010E941E1A0AC0F2
:1009800080912601811102C069E201C065E3CA01BC
:100990000E94201A0E940F190DC081E080932B0144
:1009A00080932C01C801DF91CF911F910F91FF908F
:1009B0000C94280280E0DF91CF911F910F91FF905E
:1009C000089580E090E00895089596E0799FF00101
:1009D00011249CE3899FE00DF11D1124E60FF11D08
:1009E000EE0FFF1FE65BFE4F859194910895880FEF
:1009F000991FFC01EE53FE4F859194910895CF937A
:100A0000DF930E94E5040E940407EC01811521E5B3
:100A1000920708F042C0811560E5960708F034C1DE
:100A2000883E910500F5803E910508F0E9C1883ABD
:100A3000910570F4853A910508F0A9C081309105BF
:100A400009F4DEC108F48FC1049708F0D9C18BC145
:100A50008F3B910508F4A6C0803C910508F483C142
:100A6000805C910900C1C11580E3D80780F4C115ED
:100A700090E2D90708F0F5C0C03FD10508F473C172
:100A8000CF3FD10511F008F0BBC1D065B9C1C11588
:100A900020E4D20708F0F5C0EAC0811569E59607A1
:100AA00060F5C11588E5D80708F03AC1C11594E58D
:100AB000D90778F4C11523E5D20708F016C1C1158E
:100AC00062E5D60708F0FBC0DC2FCC27C16FD06AE7
:100AD00097C1C11585E5D80708F41DC1C11596E574
:100AE000D90708F040C18C2F0E9481078F71C82F51
:100AF000D0E0DC2FCC27D06283C18D3B2CE5920760
:100B000009F41FC1F0F4CB3B8CE5D80709F40DC103
:100B100008F011C1C1152AE5D20708F024C18C2FB5
:100B20008F700E94810794E0D695C7959A95E1F75A
:100B3000CF70D0E0DC2FCC27D06A8F70806EC82BAE
:100B40005FC1803C9C4509F408C1C13C8CE5D807D5
:100B500078F4CE3B9CE5D90709F4F9C0CF3BDC45DE
:100B600009F001C181E080934001C0E0D2ED48C1AD
:100B7000CE0190568115904208F0F5C08D2F8F71EF
:100B80000E948107DD27D0628F71D82B39C1853A49
:100B9000910509F4EBC0863A910509F0EAC0C2E874
:100BA000D0E42EC1883A910509F4E6C0893A91054E
:100BB00009F4E5C08A3A910509F4E4C08B3A91053D
:100BC00009F4E3C08C3A910509F4E2C08B3B91052E
:100BD00009F4E1C08C3B910509F4E0C08D3A910520
:100BE00009F4DFC0803B910509F4DEC08E3A91051F
:100BF00009F4DDC08F3A910509F4DCC0813B910511
:100C000009F4DBC0823B910509F4DAC0833B91050E
:100C100009F4D9C0843B910509F4D8C0853B9105FE
:100C200009F4D7C0863B910509F4D6C0873B9105EE
:100C300009F4D5C0883B910509F4D4C0893B9105DE
:100C400009F4D3C08D3B910509F4D2C08E3B9105C8
:100C500009F4D1C08A3B910509F4D0C0C0E0D4E4C6
:100C6000CFC0CE019F700E94F704EC01C9C0CE0135
:100C70009927D3FF03C0EC01D86CC2C0EC01D06C43
:100C8000BFC0DF70D06ABCC0837021E030E002C01A
:100C9000220F331F8A95E2F73C68CE0174E09695E7
:100CA00087957A95E1F78370382BCF70C695C695F6
:100CB00080E2C89FE0011124C22BD32BA1C04C2F8E
:100CC0004695469590E2499FA0011124C370DD2707
:100CD00021E030E0C90102C0880F991FCA95E2F7F0
:100CE000EC01C42BD52BDC688BC04C2F4695469568
:100CF00080E2489FA0011124C370DD2721E030E08D
:100D0000C90102C0880F991FCA95E2F7EC01C42BF4
:100D1000D52BDA6875C0DC2FCC27C46FD06A70C0C1
:100D2000DC2FCC27C06FD06A6BC081E0809340017C
:100D3000C0E0D4ED65C081E080934001C0E0D5ED16
:100D40005FC081E080934001C0E0D1ED59C081E0F7
:100D500080934001C0E0D0ED53C081E0809340011A
:100D6000C0E0D3ED4DC0C0E0D0E04AC0C1E8D0E45F
:100D700047C0C3E8D0E444C0C2EED4E441C0C9EEE9
:100D8000D4E43EC0CAEED4E43BC0C5EBD4E438C0E2
:100D9000C6EBD4E435C0C3EBD4E432C0C4EBD4E436
:100DA0002FC0C7EBD4E42CC0CCECD4E429C0CDECEC
:100DB000D4E426C0C3E8D5E423C0CAE8D5E420C003
:100DC000C2E9D5E41DC0C4E9D5E41AC0C1E2D6E445
:100DD00017C0C3E2D6E414C0C4E2D6E411C0C5E231
:100DE000D6E40EC0C6E2D6E40BC0C7E2D6E408C023
:100DF000CFE6D4E405C0C0E7D4E402C0CAE2D6E43A
:100E0000CE01DF91CF9108958238910549F1B0F478
:100E10008133910509F458C048F48932910509F4E9
:100E20004EC08A32910509F454C008958533910566
:100E300009F440C08933910599F00895833E9105E6
:100E400029F138F4803E910591F0823E9105A1F0A0
:100E50000895863E9105F9F0873E910531F1089598
:100E60002091110220FD3AC021FD38C008958091E3
:100E7000110280FD35C032C08091110282FF32C064
:100E80008091110284FD30C083EE39C0809111023F
:100E900082FD28C0F5CF8091110283FF27C0809189
:100EA000110284FD21C087EE2AC08091110283FDCA
:100EB0001DC0F5CF8091110285FD1AC01BC0809125
:100EC000110285FD17C014C08091110286FD14C067
:100ED00015C08091110286FD11C00EC080EE0FC0BA
:100EE00089E30DC082EE0BC080E009C086EE07C02A
:100EF00089E205C085E303C08AE201C081E390E096
:100F000008959091110292FF0DC0282F287128306A
:100F100019F4877F846006C0282F2471243011F4CF
:100F20008B7F886093FF0DC0282F2871283119F41A
:100F3000877E846106C0282F2471243111F48B7EB2
:100F4000886194FD877E089508950C94A407089500
:100F50000C94A7070895E82FF0E0ED5CFE4F808128
:100F6000089508958091D401836088608093D401AE
:100F70008091000180910001811102C095E001C0C3
:100F800090E09093E30185E0891B8093E201ACE15E
:100F9000B1E041E050E025E02A0F8D91E82FE29585
:100FA000EF70F0E031A18F70BA0102C0660F771FB9
:100FB0008A95E2F7CB01962F9095932391A392A166
:100FC000892B82A32A13E9CFA6E1B1E041E050E0EA
:100FD00026E02A0F8D91E82FE295EF70F0E031A125
:100FE0008F70BA0102C0660F771F8A95E2F7CB01B6
:100FF000962F9095932391A392A1892B82A32A13D4
:10100000E9CFE3E3F1E08AE08E0F11928E13FDCF7A
:1010100085E00E94D2080C949C026F927F929F926E
:10102000AF92BF92CF92DF92EF92FF920F931F93F6
:10103000CF93DF932CE1622E21E0722EAEE2B1E07D
:1010400020E001E010E035E0B32EBA0E7D01AC9057
:101050001C92E30189913E01E82FE295EF70F0E0E8
:1010600042A18F70B80102C0660F771F8A95E2F720
:10107000CB01362F3095432342A341A1462B41A3F8
:1010800070EA7A95F1F796E1C92E91E0D92E40E009
:1010900050E0E60199906E01692D62956F7070E0E5
:1010A000EB0168A170E0D92DDF7002C075956795DE
:1010B000DA95E2F760FD07C0B801042E01C0660FA3
:1010C0000A94EAF702C060E070E07C91672B6C93B1
:1010D0004F5F5F4F46305105E1F691A1392331A3AF
:1010E00092A1892B82A3119681E0F7019081A91228
:1010F00001C080E0282BBA12A9CF6091E30170E013
:101100006D5C7E4F45E08EE291E00E94D30881E065
:10111000DF91CF911F910F91FF90EF90DF90CF90D3
:10112000BF90AF909F907F906F900895CF930E9453
:101130000D08C82F0E940809882339F12091E20187
:10114000822F90E08D5C9E4F0E944309811118C050
:1011500090912D019F5F90932D01963098F04091D2
:10116000E20120E030E050E0F901E40FF51FED5C12
:10117000FE4F10822F5F3F4F25303105A9F702C087
:1011800010922D010E942E020AC02091E301822FAD
:1011900090E08D5C9E4F0E9467090E94AA078C2FE9
:1011A000CF9108950895FF920F931F93CF93DF93EC
:1011B000C82F192FF62E072FD42F222349F081E0B4
:1011C00080933F010E94B41A90933E0180933D01A9
:1011D00080913F018823B1F080913D0190913E01C3
:1011E0000E94C01A069770F02C2FAF2DB02FEC2F55
:1011F000F12F8E2F821B8D1718F481918D93F9CFCB
:1012000010923F01DF91CF911F910F91FF900895B0
:1012100080914201811112C08091D8008061809339
:10122000D8008AE18A95F1F700C08091D90080FD4D
:1012300002C082E001C081E08093420181E0909190
:101240004201913009F080E008950C9408090E9451
:101250002509809300010E940809882331F00E942B
:10126000370981E08093400108950C943D0961E0C5
:1012700070E081E091E00C94AC0C61E070E081E002
:1012800091E00C94B50CCF93DF93D82FC92F0E9417
:10129000580D892BC1F4ED2FFC2F80E090E0DC018C
:1012A000AB5BBE4F2C912193019685309105B9F728
:1012B0008091130280FF02C0869501C080E0809378
:1012C000440181E001C080E0DF91CF91089520E0EA
:1012D00030E0FC014191CF01F901EB5BFE4F40830F
:1012E0002F5F3F4F25303105A1F7809144010C94C9
:1012F0003002EF92FF920F931F93CF93DF93E90198
:10130000662309F44BC0242F30E0EFEFF0E0E61B3A
:10131000F109B901E69F9001E79F300DF69F300D6E
:101320001124232F8B01031B11095CE3E52EF12C03
:10133000B7010E94DB23FB01BC01069FC001079F90
:10134000900D169F900D1124B7010E94DB23E2300F
:10135000F105B1F040F4309779F0319711F5832F12
:10136000242F461B21C0E430F105A1F068F0359729
:10137000C1F4842F861B18C0832F262F230F14C07F
:10138000862F830FE42F03C0E42FE61B842F432F07
:101390002E2F0AC0842F462F430F06C0842F242FE0
:1013A00003C080E020E040E0E42FF0E0EE53FE4F89
:1013B0004491E22FF0E0EE53FE4F9491E82FF0E0DD
:1013C000EE53FE4FE49149839883EA83DF91CF91F6
:1013D0001F910F91FF90EF90089588E090E00C949A
:1013E0004D24CF92DF92EF92FF926B017C010E941D
:1013F000ED096C157D058E059F0551F0B701A6011D
:1014000088E090E0FF90EF90DF90CF900C946B24F9
:10141000FF90EF90DF90CF900895E4EEF1E083E04D
:1014200080831092E5018FEF828383831482608131
:101430007181828193810C94F1098091E80190E09F
:1014400001968430910514F083E090E08093E801E8
:101450006091E4017091E5018091E6019091E701CE
:101460000C94F1098091E80190E0019797FF02C088
:1014700080E090E08430910514F083E090E0809368
:10148000E8016091E4017091E5018091E60190919D
:10149000E7010C94F1098091E40180FF06C06CE043
:1014A00070E089EE91E00C944E0C80E090E0FC013D
:1014B000E751FE4F11821082128203968432910509
:1014C000B1F7EDCFE4EEF1E080818E7F8083608123
:1014D0007181828193810E94F1092FEF80E792E070
:1014E000215080409040E1F700C000000C944B0A6E
:1014F0009091E40190FF0FC020E030E0F901E75146
:10150000FE4F8183608342832D5F3F4F243231053C
:10151000A9F70C944B0A0895DF92EF92FF920F9374
:101520001F93CF93DF9300D01F92CDB7DEB73091DA
:10153000E40130FF31C0D22E042FF62EE92E182FF1
:101540003E77323051F49E012F5F3F4F0E94790960
:101550004B8169818A810E94780A8091E40110FBA5
:1015600087F98093E40116958091E5018078182B26
:10157000E0FA17F91093E501F092E6010093E70114
:10158000DD2051F06091E4017091E5018091E60168
:101590009091E7010E94F1090F900F900F90DF9159
:1015A000CF911F910F91FF90EF90DF900895282F1A
:1015B000E4EEF1E09081991F9927991F3091E501A0
:1015C000832F880F482F492B37FB552750F9CA0125
:1015D0000A9668E671E00E94EF23438162810C94D1
:1015E0008C0A81E00C94D70A282F9091E401991F6E
:1015F0009927991F3091E501832F880F482F492B98
:1016000037FB552750F9CA014A3051051CF4825A5C
:101610009E4F01C00A9768E671E00E94EF23409157
:10162000E7016091E6010C948C0A81E00C94F40AC5
:101630006091E601262F30E02F3E310514F46F5EF5
:1016400001C06FEF3091E401331F3327331F9091B6
:10165000E501592F550F97FB992790F9282F4091B5
:10166000E701852F832B0C948C0A81E00C94180BD6
:101670006091E601262F30E02131310514F06151EF
:1016800001C060E03091E401331F3327331F909194
:10169000E501592F550F97FB992790F9282F409175
:1016A000E701852F832B0C948C0A81E00C94380B76
:1016B0004091E701242F30E02F3E310514F44F5EB6
:1016C00001C04FEF3091E401331F3327331F909156
:1016D000E501592F550F97FB992790F9282F609115
:1016E000E601852F832B0C948C0A81E00C94580B17
:1016F0004091E701242F30E02131310514F04151B0
:1017000001C040E03091E401331F3327331F909133
:10171000E501592F550F97FB992790F9282F6091D4
:10172000E601852F832B0C948C0A81E00C94780BB6
:1017300020E00C948C0A8091E40180FF23C0817822
:1017400082608093E401662351F06091E40170911E
:10175000E5018091E6019091E7010E94F1098091F5
:10176000E401881F8827881F9091E501292F220F07
:1017700097FB992790F94091E7016091E601822B50
:101780000C94980B0895682F81E00C949B0B81E0DA
:101790000C94C30B682F9091E40196959F738FEF83
:1017A000890F09F481E00C949B0B81E00C94CA0B27
:1017B00061E00C949B0BE4EEF1E08081816080831A
:1017C00086958F730C94D80B8091E40180FD0C9466
:1017D000620A0C94DB0B60E00C949B0B8091D401AB
:1017E00081608093D4010E947319811104C00E940A
:1017F000EA190E940D0A0E94ED096093E4017093BA
:10180000E5018093E6019093E7016E7761F40E9411
:101810000D0A0E94ED096093E4017093E501809345
:10182000E6019093E7018091E40180FF04C0869572
:101830008F730C94EB0B08952BB1342F3095232329
:101840003BB1432B3FB7F894FC01680F791FE617B3
:10185000F70789F0819198E04BB9000000C087FF3D
:101860002BB9880F000000C000C000C02BB900C019
:101870009A9591F7ECCF3FBF08952AB1242B2AB94E
:101880009B01220F331F620F731F0E941C0C87ECF9
:1018900090E00197F1F700C00000089548E00C9433
:1018A0003D0C8EE1489B02C08150E1F7489BFECF82
:1018B0000895589880E28A95F1F7589A0895FC01A6
:1018C0003AE03A95F1F798E020E080E031E040E13D
:1018D0004A95F1F7880F489B02C08160232700C01A
:1018E000000040E14A95F1F7915089F790E19A950F
:1018F000F1F799B100C0000030E13A95F1F791702D
:1019000092272081920F90830895FF920F931F9347
:10191000CF93DF9300D0CDB7DEB71982F82E8C01BC
:10192000802F8F19861760F46A830E94510CCE01B4
:1019300001960E945F0CF80181938F016A81F0CFBC
:1019400081E09981911180E00F900F90DF91CF910C
:101950001F910F91FF90089590934C0180934B013C
:1019600060934A01509A589A089590934C0180933D
:101970004B0160934A015098589AE89AE9E6F0E0E2
:1019800080818C7F80830895615091E001C0990F20
:101990006A95EAF720E031E0992361F0492F482366
:1019A00019F0589A232701C0589840E24A95F1F758
:1019B0009695F2CF222311F0589A01C0589880E2F0
:1019C0008A95F1F758980895EF92FF920F931F931D
:1019D000CF93DF931F92CDB7DEB7162F082F7C0170
:1019E0008E2D801B811758F4F70181917F01898327
:1019F0000E94590C68E089810E94C40CF1CF0F90BD
:101A0000DF91CF911F910F91FF90EF9008951F925A
:101A10000F920FB60F9211242F933F934F935F9322
:101A20006F937F938F939F93AF93BF93CF93DF93E6
:101A3000EF93FF935898509AC0914B01D0914C016D
:101A40006D81662321F08E819F810E94E40C0E94AB
:101A5000590C80E18A95F1F758985098589A80E18E
:101A60008A95F1F76A81662351F08B819C810E94EF
:101A7000850CE881F981811104C082E003C0E8810E
:101A8000F98188E080830E94510CFF91EF91DF91F2
:101A9000CF91BF91AF919F918F917F916F915F9106
:101AA0004F913F912F910F900FBE0F901F9018955F
:101AB000CF93DF93C0914B01D0914C01F894509A91
:101AC000589885E08A95F1F700005098589A80E27E
:101AD0008A95F1F7489B0AC0509A589AE881F98193
:101AE00081E08083789481E090E02CC06D81662352
:101AF00081F08E819F810E94850C81110AC0509ACD
:101B0000589AE881F98182E08083789482E090E0BD
:101B100019C00E94510C80E28A95F1F75898509AAA
:101B200080E18A95F1F76A81662321F08B819C819F
:101B30000E94E40C0E94590CE881F981108278948B
:101B400080E090E0DF91CF910895909352018093CF
:101B500051010895E0915101F0915201309721F027
:101B60000190F081E02D099480E00895E091510109
:101B7000F0915201309721F00280F381E02D099419
:101B8000089520914F01309150018217930771F011
:101B90009093500180934F01E0915101F0915201D7
:101BA000309721F00680F781E02D09940895209167
:101BB0004D0130914E018217930771F090934E01C1
:101BC00080934D01E0915101F0915201309721F045
:101BD0000084F185E02D0994089585B7806885BF5C
:101BE00085B7806885BF08950E94ED0D0C94270984
:101BF0000E94AB1A0E94B2070E94211B0E94211C66
:101C00000C94EE0BCF92DF92EF92FF920F931F9303
:101C1000CF93DF93CDB7DEB72B970FB6F894DEBF27
:101C20000FBECDBF0E9496080E940809811111C005
:101C30008FEF89838A831B820E94B41A8160782F78
:101C40009D838C8349815A816B818D810E94A80E6E
:101C500056C084E5C82E81E0D82E00E010E0E02ECA
:101C6000802F0E94AB07F60141916F01F42EF826F8
:101C700031F40F5F1F4F0A30110589F7D9CF9091CA
:101C8000D40191FF04C08B870E94B1078B8520E0AF
:101C900030E04F2D50E0922FBA01022E02C0759510
:101CA00067950A94E2F760FF24C02E83EF8221E05B
:101CB00030E0690102C0CC0CDD1C9A95E2F790E09F
:101CC0008C219D21892B09F420E028870E94B41AD9
:101CD0008160782F9A8789874E815F8168858A85A0
:101CE0000E94A80EF801EC5AFE4F8081C826C082DF
:101CF00006C02F5F3F4F2630310569F6BACF1091ED
:101D000053010E94AA0D1817A1F00E94AA0D8093FA
:101D100053012B960FB6F894DEBF0FBECDBFDF91F7
:101D2000CF911F910F91FF90EF90DF90CF900C9487
:101D3000A9022B960FB6F894DEBF0FBECDBFDF9180
:101D4000CF911F910F91FF90EF90DF90CF9008956A
:101D5000CF93DF93CDB7DEB72B970FB6F894DEBFE6
:101D60000FBECDBF4F83588769877A878B87DE0187
:101D7000119686E0FD0111928A95E9F785E0FE0152
:101D8000379601900D928A95E1F749815A816B81CE
:101D90007C818D819E810E94B6152B960FB6F8949A
:101DA000DEBF0FBECDBFDF91CF910895FC018081D2
:101DB00091810E9484180895CF93DF931F92CDB72D
:101DC000DEB7882309F423C1682F8238C1F40E944A
:101DD000AA0D81FD1CC169E38091090190910A015E
:101DE0000E941E1A0E940F192FEF81EE94E02150DD
:101DF00080409040E1F700C0000069E319C08338DB
:101E000011F50E94AA0D80FD02C163E580910901D0
:101E100090910A010E941E1A0E940F192FEF81EE65
:101E200094E0215080409040E1F700C0000063E55D
:101E30008091090190910A010E94201A0F90DF9170
:101E4000CF910C940F198438C1F40E94AA0D82FD21
:101E5000DEC067E48091090190910A010E941E1A78
:101E60000E940F192FEF81EE94E0215080409040A6
:101E7000E1F700C0000067E4DBCF8CEF860F813A0A
:101E800070F4862F69830E94E51B69818111BFC0B0
:101E90008091090190910A010E941E1ACFCF80E221
:101EA000860F883048F4677081E001C0880F6A951A
:101EB000EAF70E94C618C2CF8BE5860F833088F4FC
:101EC000653A29F0663A31F083E890E005C081E890
:101ED00090E002C082E890E00F90DF91CF910C94E7
:101EE000C10D88E5860F873108F091C0683A09F482
:101EF00045C0693A09F445C06A3A09F445C06B3AED
:101F000009F445C06C3A09F445C06B3B09F445C07F
:101F10006C3B09F445C06D3A09F445C0603B09F4D7
:101F200045C06E3A09F445C06F3A09F445C0613BBB
:101F300009F445C0623B09F445C0633B09F445C060
:101F4000643B09F445C0653B09F445C0663B09F4B0
:101F500045C0673B09F445C0683B09F445C0693B8F
:101F600009F445C06D3B09F445C06E3B09F445C01A
:101F70006A3B09F445C080E090E044C082EE90E006
:101F800041C089EE90E03EC08AEE90E03BC085EB18
:101F900090E038C086EB90E035C083EB90E032C033
:101FA00084EB90E02FC087EB90E02CC08CEC90E0AD
:101FB00029C08DEC90E026C083E891E023C08AE838
:101FC00091E020C082E991E01DC084E991E01AC04F
:101FD00081E292E017C083E292E014C084E292E0D2
:101FE00011C085E292E00EC086E292E00BC087E26B
:101FF00092E008C08FE690E005C080E790E002C064
:102000008AE292E00F90DF91CF910C94D70D0F9060
:10201000DF91CF910895882309F45BC0682F82383F
:1020200079F40E94AA0D81FF54C069E380910901EF
:1020300090910A010E941E1A0E940F1969E310C0B4
:102040008338B1F40E94AA0D80FF43C063E58091FC
:10205000090190910A010E941E1A0E940F1963E55E
:102060008091090190910A010E94201A0C940F1985
:10207000843879F40E94AA0D82FF2BC067E4809116
:10208000090190910A010E941E1A0E940F1967E42B
:10209000E7CF8CEF860F813A18F380E2860F883005
:1020A00048F4677081E001C0880F6A95EAF70E94E2
:1020B000CC18DCCF8BE5860F833020F480E090E0F5
:1020C0000C94C10D685A673120F480E090E00C94C4
:1020D000D70D0895882321F00E94C6180C940F197B
:1020E0000895882321F00E94CC180C940F190895AC
:1020F0004F925F926F927F92BF92CF92DF92EF9258
:10210000FF920F931F93CF93DF937C01D62FC72F9E
:10211000FC01058102950F70128111110E94E318D4
:102120000E94BC18882379F0112369F080E28D0F9A
:10213000883048F082E00E945A190E94BC1891E051
:10214000B82EB92601C0B12CCC2EC2948FE0C82283
:10215000D12CF601E859FF4F0C9425248C2F807F59
:10216000CF70882311F0C295C07F112399F0CC2342
:1021700009F48EC180E28D0F883010F0D11104C0B7
:102180008C2F0E94C61803C08C2F0E94D6180E9464
:102190000F197EC18D2F0E940B10CC2309F4C1C1F1
:1021A00080E28D0F883010F0D11104C08C2F0E9476
:1021B000CC1803C08C2F0E94DC180E940F19B1C1EB
:1021C0008C2F807FCF70803211F0C295C07FDD23CD
:1021D00019F0D130C9F022C0112371F0002341F071
:1021E000013031F40E94F6188C2B0E94FC1899C122
:1021F0000E94F6188C2B1DC0002319F0013009F441
:1022000090C10E9405191AC0112321F0063008F070
:1022100088C10EC0053008F084C110C0112361F0E0
:10222000002331F0F701858180FF32C18F708583F3
:102230008C2F0E946A1075C101113BC18C2FE6C022
:102240008C2F86958695837090E0009719F0019702
:1022500061F067C1112321F08D2F9C2F937002C074
:1022600080E090E00E94C10D6CC1112321F08D2F00
:102270009C2F937002C080E090E00E94D70D61C156
:102280008C2F837009F050C0111157C18D2F82958A
:1022900086958770880F880F9D2F9F70492E512C2F
:1022A000612C712C082E04C0440C551C661C771C34
:1022B0000A94D2F7D4FF14C00FE010E020E030E021
:1022C000B901A80104C0440F551F661F771F8A95E6
:1022D000D2F7CB01BA01609570958095909503C0B7
:1022E00060E070E0CB01C695C695C370D0E0C23007
:1022F000D10561F0C330D10581F0642975298629A3
:102300009729219771F00E94FB1617C1642975293E
:10231000862997290E940D1710C10E94FB16C30140
:10232000B2010E94E91609C1112319F08C2F8170A6
:1023300001C08695882309F400C18D2F829586956A
:102340008770880F880F9D2F9F70492E512C612C0C
:10235000712C082E04C0440C551C661C771C0A9472
:10236000D2F7D4FF14C00FE010E020E030E0B90154
:10237000A80104C0440F551F661F771F8A95D2F726
:10238000CB01BA01609570958095909503C060E08F
:1023900070E0CB01C695C695C3704C2F50E042301B
:1023A000510569F04330510589F064297529862962
:1023B00097294130510571F00E94C117BEC06429B0
:1023C0007529862997290E94D317B7C00E94C11783
:1023D000C301B2010E94AF17B0C08D2F90E0FC0185
:1023E000E05EF109E531F10508F04EC0E858FF4F15
:1023F0000C942524DF708C2F8F71112321F00E9403
:1024000048178D2F16CF0E9469178D2F0E947110CB
:1024100088C0112341F0053008F083C08C2F8F71E4
:102420000E948E177EC0063008F07BC0F7CF1123C4
:1024300039F08C2F8F710E94481773C01123C9F394
:102440008C2F8F710E9469176CC0112329F08C2F7B
:102450008F710E94331765C00E942E1762C011232E
:1024600049F0CF718C2F0E94481763E08C2F0E9497
:10247000451957C081E00E945A19023008F451C032
:1024800082E00E945A194DC0112331F0002389F2D5
:102490008D2F0E94DC0E45C0002391F2D93349F400
:1024A0005FEF67EE73E0515060407040E1F700C0AD
:1024B00000008D2F0E940B1034C04C2F4F706D2FD9
:1024C000C7010E94E1040E945A163BC0111139C095
:1024D000CF70D0E0C230D10599F03CF4209769F07C
:1024E0002197F9F40E945B1C2CC0C430D10571F017
:1024F00054F02597B1F480E00AC00E943E1C21C030
:102500000E949A1C1EC00E94A11C1BC085E00E9454
:10251000C41C17C04C2F4F706D2FC7010E94E404DC
:1025200010C088E0C816D10441F05CF0EAE0CE1A91
:10253000D108F2E0CF16D10420F40E94AA0D0E9427
:10254000A902BB20F1F00E94B81880FD1AC0F70163
:1025500012820E94B2180E944817C7010E94CF122F
:102560000E94B218DF91CF911F910F91FF90EF90D1
:10257000DF90CF90BF907F906F905F904F900C94C2
:102580006917DF91CF911F910F91FF90EF90DF902E
:10259000CF90BF907F906F905F904F9008950F9372
:1025A0001F93CF93DF93EC01888199812B813C812C
:1025B000232BB9F09F3F11F48F3F99F0CE010E9479
:1025C000C102882371F0688179818A810E948F1805
:1025D0008C010E94E5170E94E616B801CE010E9408
:1025E0007810DF91CF911F910F9108950E94E31809
:1025F0000E94F3180E940F1980E090E00E94C10D24
:1026000080E090E00C94D70D8091090190910A012F
:102610000E94221A0C94F6120E94D3180C940413F0
:10262000E92FE295EF70F0E03297EE30F105B0F46B
:10263000E357FF4F0C942524803F91F018F4803E1F
:1026400068F40EC0843F51F40BC0803E48F0813FD7
:1026500029F406C093FB882780F9089580E0089547
:1026600081E008950E9484180E9410130895CF936A
:10267000DF9300D000D01F92CDB7DEB70F900F9040
:102680000F900F900F90DF91CF910895CF93DF932C
:1026900000D000D000D0CDB7DEB726960FB6F894A4
:1026A000DEBF0FBECDBFDF91CF9108951F93CF93B3
:1026B000DF93C0915F0116E080916001C81799F027
:1026C000D0E01C9FF0011D9FF00D1124EF59FE4F2B
:1026D0004081518162817381848195810E9446137A
:1026E0002196C770E9CFDF91CF911F910895409156
:1026F00091015091920160919301709194018091A8
:102700009501909196010C944613809196018295C3
:102710008F7009F054C080919301882309F44FC051
:1027200080915F01A091600160919101709192018F
:102730004091940150919501B6E08A1709F43FC089
:1027400090E041155105C1F17F3F11F46F3FA1F1B8
:10275000B89FF001B99FF00D1124EF59FE4F218170
:1027600072132AC02081621327C02281211124C044
:10277000238134812417350710F421503109241B9B
:10278000350B283C3105C0F4209196012F70206153
:102790002093960126E0289FF001299FF00D112437
:1027A000EA59FE4F80818F708061808381E991E0DA
:1027B0000E94CF120C94561301968770BECF0895D5
:1027C000CF92DF92EF92FF920F931F93CF93DF93FD
:1027D000CDB7DEB762970FB6F894DEBF0FBECDBFA0
:1027E0008C0185E0F801DE011D9601900D928A951D
:1027F000E1F7D8014C9111965C91119712966C916A
:1028000012971396CD90DC901497309191017091AE
:1028100092018091940190919501009709F46BC108
:102820007F3F19F43F3F09F466C1E0909301EE2029
:1028300009F4C0C020919601C816D90628F0F60107
:10284000E81BF90BCF0104C0809590958C0D9D1D60
:10285000FF24F394883C910578F0F12C207F09F057
:10286000C6C07C2DD98AC88A89890E94371381E91C
:1028700091E00E94CF12B1C0822F807F09F046C044
:10288000751314C0341312C0611110C02F70206171
:10289000209396010E94771381E991E00E94CF1264
:1028A00080919601D80115968C932EC0CD2819F1F0
:1028B0005F3F11F44F3FF9F0F62E61111CC080917B
:1028C0005F012091600136E0821709F45AC090E060
:1028D000389FF001399FF00D1124EF59FE4F71819F
:1028E000571306C07081471303C07281711103C072
:1028F00001968770E9CFF62E662309F427C18091EF
:102900009601816080939601F12C20C1751308C057
:10291000341306C0611104C080919601D801C3C070
:102920004D875E878D859E856A8B0E9432136A89EA
:102930008823E1F16623D1F120919601822F8295BF
:102940008F7090E0029774F08091910190919201C4
:1029500098878F831986DB86CA862C87CE010796D7
:102960000E94CF1286E0F801A1E9B1E001900D923A
:102970008A95E1F70E9485130E947713FF24F39450
:10298000E5C04D875E878D859E850E948418292F1E
:1029900022952F7030E0223031050CF0CBC09F70B3
:1029A00009F0C5C0805E883008F4D0C0C8010E941C
:1029B000CF12E4CFC816D90608F453C0F601E81BBD
:1029C000F90BCF01883C910508F450C0F12C7C2D07
:1029D000D98AC88A89890E943713E1E9F1E086E043
:1029E000DF011D928A95E9F70E947713AFC0751336
:1029F00014C0341312C0611110C080919601F80107
:102A00008583C8010E94CF1286E0E1E9F1E0DF0191
:102A10001D928A95E9F7FE2C99C04D875E878D85BA
:102A20009E856A8B0E9432136A89882309F4BECF7F
:102A3000662309F4BBCF20919601822F82958F7077
:102A400090E002970CF48ECF8091910190919201C9
:102A50009A8389831B82DD82CC822E83CE010196EC
:102A60007FCF809590958C0D9D1DACCFF62E662363
:102A700009F49CCF75132EC034132CC020919601FD
:102A800020FD1FC0822F82958F70D9F0D801159636
:102A90002C9315978F3049F08F5F982F9295907FE8
:102AA000822F8F70892B15968C93C8010E94CF12AC
:102AB00086E0F801A1E9B1E001900D928A95E1F775
:102AC00093CF86E0F801A1E9B1E001900D928A95DB
:102AD000E1F73CC04D875E878D859E850E9432134D
:102AE000811140CF80919601816080939601C80149
:102AF0000E94CF122BC0662309F458CF4D875E8702
:102B00008D859E850E943213F82E882309F44ECFBE
:102B100086E0F801A1E9B1E001900D928A95E1F714
:102B200081E991E00E94D60E0E9485135DCF81114C
:102B300039CF0CC0243031050CF038CF9F7009F428
:102B400031CFF8019581907F09F02CCF8F2D6296BF
:102B50000FB6F894DEBF0FBECDBFDF91CF911F91AE
:102B60000F91FF90EF90DF90CF9008951F93CF9338
:102B7000DF93CDB7DEB72C970FB6F894DEBF0FBE4C
:102B8000CDBF4F83588769877A878B879C87CE0113
:102B900007960E94E013882369F08F8198852A8523
:102BA0003B85232BF1F19F3F09F063C08F3F09F074
:102BB00060C037C086E0FE013796DE0111960190B5
:102BC0000D928A95E1F76F817885EA85FB853097CC
:102BD00041F17F3F11F46F3F21F12091600130E01E
:102BE000C90101968770992740915F0150E08417D1
:102BF000950709F447C069837A83FD83EC8396E0E7
:102C0000929FD001939FB00D1124AF59BE4FFE018A
:102C1000319601900D929A95E1F7809360010E94A0
:102C2000561316E080915F01909160018917C1F100
:102C3000189FC00111248F599E4F0E94E0138823D2
:102C400079F1E0915F011E9FF0011124EF59FE4FD1
:102C50004081518162817381848195810E944613F4
:102C600080915F0190E001968770992780935F01C2
:102C7000D9CF4F81588569857A858B859C850E943F
:102C80004613CFCF0E940C131092600110925F0187
:102C9000E1E9F1E086E0DF011D928A95E9F7C1CF15
:102CA0002C960FB6F894DEBF0FBECDBFDF91CF914B
:102CB0001F910895EF92FF920F931F93CF93DF938D
:102CC0008C01892B09F46CC0F12CEE24E394E8010B
:102CD0002196F8018491843740F4843008F051C083
:102CE000813081F0823019F15BC0853709F444C02E
:102CF000A8F19CE7980F903708F052C08F770E9498
:102D00000B1041C00E5F1F4FFE01C49180E28C0F7B
:102D1000883048F4C7708E2D01C0880FCA95EAF735
:102D20000E94E61814C08C2F0E94DC0E2DC00E5F8E
:102D30001F4FFE01C49180E28C0F883058F4C77099
:102D40008E2D01C0880FCA95EAF70E94EC180E94E8
:102D50000F191AC08C2F0E940B1016C00E5F1F4F48
:102D6000FE01C491CC2381F08FE99FE00197F1F738
:102D700000C00000C150F6CF0E5F1F4FFE01F4905F
:102D800003C00E94DC0E8E018F2D882309F49FCF93
:102D9000EFE9FFE03197F1F700C000008150F5CF77
:102DA000DF91CF911F910F91FF90EF9008950895BB
:102DB0000C94D7160E94D8166093C3017093C40177
:102DC0008093C5019093C6010C94F61208950C945B
:102DD000DA160F931F930091C3011091C401209143
:102DE000C5013091C601602B712B822B932B1F9153
:102DF0000F910C94DA160F931F930091C301109159
:102E0000C4012091C5013091C60160237123822342
:102E100093231F910F910C94DA160F931F93009137
:102E2000C3011091C4012091C5013091C6016027F2
:102E30007127822793271F910F910C94DA1608951A
:102E40000C941F170E9420176093BF017093C0015C
:102E50008093C1019093C2010C94F61260E070E07F
:102E6000CB010C9422170F931F9341E050E060E0D8
:102E700070E08A019B0104C0000F111F221F331F45
:102E80008A95D2F7C901B8011F910F910C942217AE
:102E90000F931F9341E050E060E070E004C0440FE6
:102EA000551F661F771F8A95D2F78091BF019091B9
:102EB000C001A091C101B091C2018A019B01082B00
:102EC000192B2A2B3B2BC901B8011F910F910C9490
:102ED00022170F931F9341E050E060E070E004C0C0
:102EE000440F551F661F771F8A95D2F7409550955E
:102EF000609570958091BF019091C001A091C10132
:102F0000B091C2018A019B01082319232A233B2384
:102F1000C901B8011F910F910C9422170F931F93B1
:102F200041E050E060E070E004C0440F551F661FB0
:102F3000771F8A95D2F78091BF019091C001A0912F
:102F4000C101B091C2018A019B01082719272A27D4
:102F50003B27C901B8011F910F910C9422170F93C1
:102F60001F930091BF011091C0012091C1013091C8
:102F7000C201602B712B822B932B1F910F910C940C
:102F800022170F931F930091BF011091C001209150
:102F9000C1013091C20160237123822393231F91C9
:102FA0000F910C9422170F931F930091BF01109162
:102FB000C0012091C1013091C20160277127822791
:102FC00093271F910F910C9422170895292F220FF8
:102FD000920F990F890FA82FA695A695A695877091
:102FE00051E001C0550F8A95EAF785E0A89FD0010E
:102FF000112420E030E070E0F901EA0FFB1FE956F0
:10300000FE4F4081CB01022E02C0969587950A940F
:10301000E2F781709927819584278523842780830F
:103020002F5F3F4F2530310539F70895292F220FA3
:10303000920F990F890F682F669566956695982F60
:10304000977085E0689FB001112440E050E080E077
:10305000FA01E60FF71FE956FE4F208130E0092EF6
:1030600002C0369527950A94E2F721703327042E83
:1030700001C0220F0A94EAF7822B4F5F5F4F453061
:10308000510531F70895BF92CF92DF92EF92FF92F0
:103090000F931F93CF93DF938C01C090C301D09007
:1030A000C401E090C501F090C6018091BF019091EC
:1030B000C001A091C101B091C201C82AD92AEA2A4F
:1030C000FB2ACFE1D0E0D701C6010C2E04C0B69593
:1030D000A795979587950A94D2F780FF07C0BC2ED5
:1030E000B8018C2F0E94FF04019719F4219758F71B
:1030F000B12C8B2DDF91CF911F910F91FF90EF900D
:10310000DF90CF90BF900895CF93DF93EC010E94A2
:103110004318BE010E94FF04DF91CF9108951F93D1
:10312000CF93DF93EB0190915E01992321F0CB01C6
:103130000E94841813C0882349F0CB010E944318D1
:10314000182F682FCE010E94E61704C0CB010E9401
:103150001618182FBE01812F0E94FF04DF91CF9116
:103160001F9108958091C70185958595859508954E
:103170008091C701877008959091C701977081E091
:1031800009F480E008958091D30108959091D301CE
:10319000892B8093D301089580959091D301892341
:1031A0008093D30108951092D30108959091D20194
:1031B000892B8093D201089580959091D201892323
:1031C0008093D20108951092D20108959091D10177
:1031D000892B8093D101089580959091D101892305
:1031E0008093D10108951092D10108958091C80172
:1031F000089508950C94F9189091C801981721F03A
:103200008093C8010C94FA1808958091C80188230E
:1032100029F01092C80180E00C94FA180895E0910A
:103220000901F0910A018091D3018083E0910901A5
:10323000F0910A0190818091D201892B8083E091E5
:103240000901F0910A0190818091D101892B80833D
:103250008091C801882381F0E0910901F0910A0171
:103260009081892B80838091090190910A010E94AD
:10327000EC1981110E9405198091090190910A01B0
:103280000C94B60D08950C94421998E0899F900112
:103290001124262B2093C7010E9448178091C70153
:1032A0008595859585950C9443191092C70180E00A
:1032B0000C9443192091C701809582238093C70104
:1032C000982F977079F430E0482F082E000C550B9A
:1032D0002417350739F08595859585950E946917DE
:1032E0000C945519089580E090E00E94532421E049
:1032F0008D3E9E4F09F020E0822F089582E090E0FD
:103300000C94452483E090E00C94452484E090E004
:103310000C944524682F84E090E00C94592486E0B6
:1033200090E00C944524682F86E090E00C9459249A
:10333000AB01BC018FE090E00C946B24AB01BC01AD
:1033400083E190E00C946B2460E070E0CB010C947E
:103350009E1960E070E0CB010E9498190C94A419AA
:103360006DEE7EEF80E090E00E94772460E082E0E6
:1033700090E00E94592460E083E090E00E9459248C
:103380001092C3011092C4011092C5011092C6019F
:1033900060E084E090E00E94592460E085E090E0E5
:1033A0000E94592460E086E090E00E9459246FEF6B
:1033B00087E090E00E94592440E050E0BA0188E0A4
:1033C00090E00E946B2460E08DE090E00E94592420
:1033D0000C94A9190C94B019FC01329697E080E086
:1033E000915029F021912223D9F38F5FF9CF0895CD
:1033F0009C01FC0132969FEF80E04191461789F0D5
:103400009F3F19F4411101C0982F8F5F8630A9F7B3
:103410009F3F39F0F901E90FF11D97FDFA9562839D
:1034200008950895FC01329608962081261301C064
:1034300010823196E817F907C1F708950C94F8192E
:103440000C94121A029626E0FC0111922A95E9F7D3
:10345000089508950C94291A0E942A1A809118023E
:10346000843061F11092D50120E488E190E00FB63C
:10347000F894A895809360000FBE2093600080E0D0
:103480000E94300280E00E94A9020E942A1A83B79B
:10349000817F846083BF83B7816083BF7894889580
:1034A00083B78E7F83BF0FB6F894A8958091600094
:1034B000886180936000109260000FBE08950895A7
:1034C0000895CF930E945F1A0E9496080E94601A86
:1034D000C0E08C2F0E94AB07811104C0CF5FCA30BF
:1034E000C1F701C081E0CF91089508950C94751A39
:1034F0000E940C130E94211C0E94AA0D0E94A90286
:103500000C94761A1F920F920FB60F9211248F937C
:103510009F93AF93BF938091D501811113C0809188
:103520000D0290910E02A0910F02B09110024196EF
:10353000A11DB11D80930D0290930E02A0930F0266
:10354000B0931002BF91AF919F918F910F900FBEDA
:103550000F901F90189582E084BD93E095BD9AEF7F
:1035600097BD80936E0008952FB7F89480910D0257
:1035700090910E02A0910F02B09110022FBF0895FA
:10358000CF92DF92EF92FF920F931F932FB7F89491
:1035900040910D0250910E0260910F027091100245
:1035A0002FBF6A017B01EE24FF248C0120E030E074
:1035B000C016D106E206F30610F4415051099A01F3
:1035C000281B390BC9011F910F91FF90EF90DF90DD
:1035D000CF90089578941F920F920FB60F921124F6
:1035E0008F939F93AF93BF9380910D0290910E02A2
:1035F000A0910F02B09110020196A11DB11D809300
:103600000D0290930E02A0930F02B0931002BF918F
:10361000AF919F918F910F900FBE0F901F901895B3
:1036200087E797E790930108809300089AE088E184
:103630000FB6F894A895809360000FBE9093600039
:10364000FFCF0E947319811102C00E94EA190E94E3
:103650007E198093D4010E94861990E09093120203
:10366000809311020E948219682F70E080E090E040
:103670000C94E7160F931F938732D8F58E3108F01C
:1036800081C08E3009F46BC098F4873009F459C0BA
:103690008B3009F48BC0863009F08FC08091D40143
:1036A000817F8E7F8093D40181E08093D60186C094
:1036B000863109F47BC068F4803109F07EC08091C6
:1036C000D40183FB222720F991E0922790FB83F914
:1036D0004FC0893109F46AC08B3109F06EC0809106
:1036E000D40181FB222720F991E0922790FB81F9F8
:1036F0003FC0883309F45AC050F4893209F458C0E5
:10370000853309F455C0873209F452C056C083345A
:1037100009F44EC028F48A3308F44FC0895333C0EB
:10372000883409F04AC00E940C130FEF13ED20E318
:10373000015010402040E1F700C000000E94101B23
:1037400035C08091D401982F9095917090FB80F9AD
:103750008093D40191112AC0897F877F10C0809106
:10376000D40182FB222720F991E0922790FB82F975
:103770008093D4019923D1F08091D401816080930A
:10378000D40114C08D5141E050E060E070E08A0146
:103790009B0104C0000F111F221F331F8A95D2F70F
:1037A000C901B8010E94E7160E940C1381E006C00F
:1037B00061E070E080E090E0F5CF80E01F910F9134
:1037C000089580E0089580E00895CF93C82F8091F8
:1037D000D601882319F0813031F02BC00E94C31824
:1037E000823249F504C00E94C318823261F48C2FE2
:1037F0000E94E11B811104C08C2F0E943A1B17C04C
:1038000081E090E014C08C2F0E94E31B81110EC058
:10381000C43149F018F4CB3049F00FC0C93219F067
:10382000C83321F00AC01092D60107C081E0817030
:1038300006C01092D60180E002C080E0F8CFCF91A0
:1038400008950E947319811102C00E94EA190E9412
:103850008F1980931302282F269530E026303105EA
:1038600024F081708A60809313028091130280FF9C
:1038700002C0869501C080E00C94300220911302B2
:10388000822F8695482F50E04530510544F48F5FD4
:10389000982F990F822F8170892B8093130280912A
:1038A00013028160809313020E9493198091130286
:1038B00086950C94300280911302982F969591F082
:1038C0009158990F8170892B809313028E7F91E01C
:1038D00009F490E08091130290FB80F98093130229
:1038E0000E9493198091130286950C943002809166
:1038F000130280FD11C0816080931302813019F49E
:1039000083E080931302809113020E9493198091A7
:10391000130286950C94300208958091130280FF63
:1039200008C08E7F809313020E94931980E00C944C
:10393000300208958091130280FD0C948D1C0C942C
:10394000771C90911302892F86958F5F8F779170E6
:10395000863028F4880F892B8093130202C090933D
:103960001302809113028E7F91E009F490E0809120
:10397000130290FB80F9809313020E9493198091A7
:10398000130286950C943002863008F085E0880F8B
:10399000909113029170892B809313028E7F91E096
:1039A00009F490E08091130290FB80F98093130258
:1039B0000E9493198091130286950C943002809195
:1039C000DF01089508950F931F93CF93DF9300D0E5
:1039D0001F92CDB7DEB78C010E94121F823011F00A
:1039E000843021F584E089831B830A8382E08093FD
:1039F000E9008FEF9091E800815095FD06C095EDAC
:103A00009A95F1F700008111F5CF8091E80085FFCC
:103A10000DC040E050E063E070E0CE0101960E94EE
:103A20002F1F8091E8008E778093E8000F900F9011
:103A30000F90DF91CF911F910F910895CF93DF9356
:103A400000D01F92CDB7DEB720911802243031F597
:103A500023E02983805891099B838A8382E08093A5
:103A6000E9008FEF9091E800815095FD06C095ED3B
:103A70009A95F1F700008111F5CF8091E80085FF5C
:103A80000DC040E050E063E070E0CE0101960E947E
:103A90002F1F8091E8008E778093E8000F900F90A1
:103AA0000F90DF91CF910895CF93DF93EC010E94A7
:103AB000121F823011F0843039F581E08093E900E3
:103AC0008FEF9091E800815095FD06C095ED9A9595
:103AD000F1F700008111F5CF8091E80085FF14C057
:103AE00040E050E068E070E0CE010E942F1F80911E
:103AF000E8008E778093E80088E0FE01A7EDB1E052
:103B000001900D928A95E1F7DF91CF910895809110
:103B10001702811109C00E94C4200E9421218091B6
:103B2000E20084608093E2000895109217020895E5
:103B3000089508950C94781A42E061EC81E00E94A7
:103B40003E2042E261EC82E00C943E2080911A0219
:103B5000833009F460C030F4813071F0823009F4B0
:103B600099C008958A3009F485C08B3009F46BC080
:103B7000893009F0A7C020C080911902813A09F06C
:103B8000A1C08091E800877F8093E80080911D02AA
:103B900090911E02892B21F468E087ED91E003C02B
:103BA00060E080E090E070E00E947A1F8091E80081
:103BB0008B778093E800089580911902813209F093
:103BC00081C080911D0290911E02029708F07AC078
:103BD0008091E800877F8093E8008091E80082FD73
:103BE00005C0809118028111F8CF6CC02091F300BC
:103BF0008091F20090E0922B029729F48091F100DD
:103C00008B7F813021F48091F1008093DF018091DE
:103C1000E8008B7753C080911902813A09F052C0B5
:103C200080911D0290911E02892B09F04BC080915A
:103C3000E800877F8093E8008091E80080FFFCCF58
:103C40008091150136C0809119028132D9F5809199
:103C50001D0290911E02892BA9F58091E800877FB3
:103C60008093E8000E94732080911B0280931501CD
:103C70000C940C1380911902813221F58091E80097
:103C8000877F8093E8000E94732080911C028093BC
:103C9000E001089580911902813AA1F48091E80031
:103CA000877F8093E8008091E80080FFFCCF8091BF
:103CB000E0018093F1008091E8008E778093E80026
:103CC0000C947320089584B7877F84BF0FB6F8944F
:103CD000A8958091600088618093600010926000D8
:103CE0000FBE80E880936100109261000E94F40D85
:103CF0000E94C4200E9421218091E2008460809370
:103D0000E20078940E94B0230E94F80D8BE091E0CD
:103D10000E94A50D80911802853069F40E942C1A2A
:103D2000809116028823B1F30E94611A882391F3CF
:103D30000E94191FEFCF0E94020EECCF0C94A01E20
:103D4000292F332723303105C9F064F421303105A0
:103D500081F02230310509F04CC08BE390E02AEF6E
:103D600032E04BC02132310521F12232310589F197
:103D700040C082E190E025E333E03FC099278130E5
:103D8000910571F02CF4892BA1F5E6EFF2E00DC05E
:103D90008230910541F0039761F5E2ECF2E005C055
:103DA000E6EEF2E002C0E8ECF2E0849190E09F01E0
:103DB00024C06115710541F061307105D1F489E0CD
:103DC00090E025E233E019C089E090E02CE033E098
:103DD00014C06115710541F06130710551F486E33D
:103DE00090E027E433E009C080E490E02DE733E081
:103DF00004C080E090E020E030E0FA0131832083CD
:103E000008950895CF93C82F0E94011FC093E10128
:103E1000CF91089580911802843011F081E00895C7
:103E200082E008958091E101811102C00C940A1F83
:103E3000089580E189BD82E189BD09B400FEFDCF0E
:103E40008091D8008F7D8093D8008091E0008260BF
:103E50008093E0008091E00081FDFCCF0895CF9237
:103E6000DF92EF92FF920F931F93CF93DF93EC01BA
:103E70008B016A010E949220811133C0C114D104C8
:103E800039F0F60180819181081B190BC80FD91FE9
:103E9000E12CF12C0115110519F18091E80085FD47
:103EA00016C08091E8008E778093E800C114D10499
:103EB00049F0F60180819181E80EF91EF182E082DD
:103EC00085E00FC00E949220882321F30AC08991C7
:103ED0008093F10001501109FFEFEF1AFF0ADACFCA
:103EE00080E0DF91CF911F910F91FF90EF90DF90D5
:103EF000CF90089520911F02309120022617370796
:103F000048F06115710539F42091E8002E7720936F
:103F1000E80001C0B90140E061157105A9F12091E7
:103F20001802222309F443C0253009F442C020912D
:103F3000E80023FD40C02091E80022FD32C020911E
:103F4000E80020FFE9CF4091F3002091F20030E03B
:103F5000342BFC01CF016115710559F02830310572
:103F600040F481918093F100615071092F5F3F4FC0
:103F7000F1CF41E02830310509F040E02091E80020
:103F80002E772093E800C8CF4111C9CF0AC0809195
:103F90001802882361F0853061F08091E80083FD8C
:103FA0000AC08091E80082FFF2CF80E0089582E0AD
:103FB000089583E0089581E0089520911F023091D3
:103FC00020022617370748F06115710539F4209152
:103FD000E8002E772093E80001C0B901FC0120E041
:103FE0006115710591F180911802882309F440C090
:103FF000853009F43FC08091E80083FD3DC0809189
:10400000E80082FD2FC08091E80080FFE9CF209179
:10401000F3008091F20090E0922B6115710559F048
:104020008830910540F424912093F100319661503D
:1040300071090196F2CF21E0089709F020E0809104
:10404000E8008E778093E800CBCF2111CCCF0AC057
:1040500080911802882361F0853061F08091E8003A
:1040600083FD0AC08091E80082FFF2CF80E00895CE
:1040700082E0089583E0089581E00895982F9730B5
:1040800058F59093E900981739F07091EC00209161
:10409000ED005091F00003C0242F762F50E021FF57
:1040A00019C03091EB003E7F3093EB003091ED0072
:1040B0003D7F3093ED003091EB0031603093EB00A9
:1040C0007093EC002093ED005093F0002091EE00EF
:1040D00027FF07C09F5FD3CF8F708093E90081E0F7
:1040E000089580E008958091190287FF11C08091A2
:1040F000E80082FD05C0809118028111F8CF11C03F
:104100008091E8008B770BC080911802882349F0DA
:104110008091E80080FFF8CF8091E8008E7780934F
:10412000E80008952091E4003091E50095E6409183
:10413000EC00842F817040FF22C08091E80080FD58
:104140001CC080911802882391F0853091F08091F5
:10415000EB0085FD10C04091E4005091E50042174E
:10416000530729F39A01915011F784E0089582E0F2
:10417000089583E0089581E0089580E008954091D6
:10418000E80042FFDECF08950E9432210E943A21CA
:10419000E0EEF0E0808181608083E8EDF0E08081F6
:1041A0008F77808319BCA7EDB0E08C918E7F8C93C4
:1041B00080818F7E80831092170208950F931F9342
:1041C000CF93DF930E9432210E943A21C8EDD0E0C4
:1041D00088818F77888388818068888388818F7DB4
:1041E000888319BC109218021092140210921602C1
:1041F0001092150200EE10E0F80180818B7F808321
:1042000088818160888342E060E080E00E943E20F7
:10421000E1EEF0E080818E7F8083E2EEF0E080814D
:1042200081608083808188608083F80180818E7FB7
:104230008083888180618883DF91CF911F910F9166
:104240000895E8EDF0E080818F7E8083E7EDF0E077
:1042500080818160808384E082BF81E08093170247
:104260000C94DE20E8EDF0E080818E7F8083109258
:10427000E20008951092DA001092E10008951F9272
:104280000F920FB60F9211242F933F934F935F938A
:104290006F937F938F939F93AF93BF93EF93FF930E
:1042A0008091E10082FF0BC08091E20082FF07C095
:1042B0008091E1008B7F8093E1000E94AF23809189
:1042C000DA0080FF1FC08091D80080FF1BC0809162
:1042D000DA008E7F8093DA008091D90080FF0DC0D4
:1042E00080E189BD82E189BD09B400FEFDCF81E096
:1042F000809318020E94871D05C019BC10921802F5
:104300000E94951D8091E10080FF19C08091E2001C
:1043100080FF15C08091E2008E7F8093E200809143
:10432000E20080618093E2008091D80080628093F7
:10433000D80019BC85E0809318020E94991D8091D5
:10434000E10084FF30C08091E20084FF2CC080E156
:1043500089BD82E189BD09B400FEFDCF8091D800FE
:104360008F7D8093D8008091E1008F7E8093E10063
:104370008091E2008F7E8093E2008091E200816074
:104380008093E20080911402882311F084E007C03A
:104390008091E30087FD02C081E001C083E080934B
:1043A00018020E949A1D8091E10083FF29C080912C
:1043B000E20083FF25C08091E100877F8093E100C8
:1043C00082E080931802109214028091E1008E7FA7
:1043D0008093E1008091E2008E7F8093E2008091E3
:1043E000E20080618093E20042E060E080E00E94B1
:1043F0003E208091F00088608093F0000E94981D1C
:10440000FF91EF91BF91AF919F918F917F916F91AC
:104410005F914F913F912F910F900FBE0F901F9082
:1044200018951F920F920FB60F9211242F933F935E
:104430004F935F936F937F938F939F93AF93BF93AC
:10444000CF93DF93EF93FF93C091E900CF708091FA
:10445000EC00D82FD17080FDD0E81092E900809157
:10446000F000877F8093F00078940E94552210928C
:10447000E9008091F00088608093F000CD2BCF7030
:10448000C093E900FF91EF91DF91CF91BF91AF9180
:104490009F918F917F916F915F914F913F912F915C
:1044A0000F900FBE0F901F9018951F93CF93DF931F
:1044B000CDB7DEB7AA970FB6F894DEBF0FBECDBF5B
:1044C000E9E1F2E088E08E0F9091F10091938E1374
:1044D000FBCF0E94A61D8091E80083FF28C1809138
:1044E000190290911A02492F50E04A30510508F004
:1044F0001EC1FA01E556FF4F0C942524803821F0A7
:10450000823809F014C108C08091150290911602FA
:10451000992389F082600FC080911D028F708730CF
:1045200008F005C18093E9008091EB0085FB8827A6
:1045300080F91092E9009091E800977F9093E8004D
:104540008093F1001092F100D0C0282F2D7F09F048
:10455000EEC0882319F0823061F0E9C080911B021F
:10456000813009F0E4C0933009F080E080931602B6
:104570002EC080911B0281112AC080911D028F7074
:104580002FEF280F263008F0D2C08093E900209149
:10459000EB0020FF1CC0933021F48091EB0080627F
:1045A00014C09091EB0090619093EB0021E030E01B
:1045B000A90102C0440F551F8A95E2F74093EA0013
:1045C0001092EA008091EB0088608093EB001092DB
:1045D000E9008091E800877F8093E8000E947320C3
:1045E000A6C08111A4C010911B021F778091E30027
:1045F0008078812B8093E3008091E800877F80930F
:10460000E8000E9473208091E80080FFFCCF809139
:10461000E30080688093E300111102C082E001C0D2
:1046200083E08093180283C08058823008F07FC0F6
:1046300080911B0290911C028C3D53E0950779F507
:1046400083E08A838AE289834FB7F894DE01139668
:1046500020E03EE051E2E32FF0E050935700E49178
:1046600020FF03C0E295EF703F5FEF708E2F90E068
:10467000EA3010F0C79601C0C0968D939D932F5FCE
:10468000243149F74FBF8091E800877F8093E8008D
:104690006AE270E0CE0101960E947A1F15C0609117
:1046A0001D0270911E02AE014F5F5F4F0E949E1E61
:1046B000BC01892BE1F19091E800977F9093E8008D
:1046C00089819A810E94DD1F8091E8008B77809319
:1046D000E8002DC0803859F58091E800877F8093ED
:1046E000E800809114028093F1008091E8008E77B9
:1046F00073CF81111CC090911B029230C0F4809145
:10470000E800877F8093E800909314020E94732052
:1047100080911402811106C08091E30087FD02C0E0
:1047200081E001C084E0809318020E949C1D80916A
:10473000E80083FF0AC08091E800877F8093E8004B
:104740008091EB0080628093EB00AA960FB6F894FC
:10475000DEBF0FBECDBFDF91CF911F9108950895A9
:10476000CF93809118028823A1F0C091E900CF7007
:104770009091EC00892F817090FD80E8C82B1092F9
:10478000E9008091E80083FD0E945522CF70C0931C
:10479000E900CF910895DB018F939F930E943A2403
:1047A000BF91AF91A29F800D911DA39F900DB29FCD
:1047B000900D11240895AA1BBB1B51E107C0AA1F2D
:1047C000BB1FA617B70710F0A61BB70B881F991FB2
:1047D0005A95A9F780959095BC01CD01089597FB56
:1047E000072E16F4009407D077FD09D00E94DB2332
:1047F00007FC05D03EF4909581959F4F08957095E4
:1048000061957F4F0895A1E21A2EAA1BBB1BFD01E3
:104810000DC0AA1FBB1FEE1FFF1FA217B307E4079F
:10482000F50720F0A21BB30BE40BF50B661F771FF7
:10483000881F991F1A9469F76095709580959095D7
:104840009B01AC01BD01CF010895EE0FFF1F059044
:10485000F491E02D0994A29FB001B39FC001A39FE2
:10486000700D811D1124911DB29F700D811D1124A9
:10487000911D08950E942B24A59F900DB49F900D2B
:10488000A49F800D911D11240895F999FECF92BD2A
:1048900081BDF89A992780B50895A6E1B0E044E07B
:1048A00050E00C947F24A8E1B0E042E050E00C948A
:1048B0007F24262FF999FECF92BD81BDF89A0197EA
:1048C00000B4021639F01FBA20BD0FB6F894FA9A58
:1048D000F99A0FBE08950396272F0E945A240E942A
:1048E0005924252F0E945A24242F0C945A240196CF
:1048F000272F0E945A240C945924DC01CB01FC017F
:10490000F999FECF06C0F2BDE1BDF89A319600B428
:0E4910000D9241505040B8F70895F894FFCF33
:10491E00014301014401054501C901DF1C541DE29B
:10492E001C1E1DE31C01F6F73133323697C6349246
:06493E00940000000000DF
:00000001FF
